:0400000052EF0EF0BD
:100800000045340A00640A00730A00733A00640069
:030810002C0000B9
:100814002FEC0EF0280E32EC0FF0020E576E040E81
:10082400566EBA0EE82EFED7562EFCD7572EFAD7A0
:1008340000D001EC0FF0586E630E5818D8A425EFC1
:1008440004F027EF04F045EF04F0020E576E040E97
:10085400566EBA0EE82EFED7562EFCD7572EFAD770
:1008640000D097EC09F0020E576E040E566EBA0EC5
:10087400E82EFED7562EFCD7572EFAD700D06FECB1
:1008840007F003EF05F0720E5818D8A44CEF04F0EB
:100894004EEF04F050EF04F041EF04F0730E5818DB
:1008A400D8A457EF04F059EF04F003EF05F0080E55
:1008B400366E080E376E24EC0CF0000E266E2650B1
:1008C40004EC08F0266E265026EC0BF01A0E566E39
:1008D400F80EE82EFED7562EFCD700D0010E266E59
:1008E400265004EC08F0266E265026EC0BF0020E7F
:1008F400576E040E566EBA0EE82EFED7562EFCD74F
:10090400572EFAD700D0020E266E265004EC08F0BB
:10091400266E265026EC0BF0020E576E040E566E11
:10092400BA0EE82EFED7562EFCD7572EFAD700D093
:10093400030E266E265004EC08F0266E265026EC94
:100944000BF0020E576E040E566EBA0EE82EFED74A
:10095400562EFCD7572EFAD700D0040E266E2650FA
:1009640004EC08F0266E265026EC0BF0020E576EAF
:10097400040E566EBA0EE82EFED7562EFCD7572E0E
:10098400FAD700D0050E266E265004EC08F0266E29
:10099400265026EC0BF0020E576E040E566EBA0E5D
:1009A400E82EFED7562EFCD7572EFAD700D0060EC7
:1009B400266E265004EC08F0266E265026EC0BF02A
:1009C400020E576E040E566EBA0EE82EFED7562E41
:1009D400FCD7572EFAD700D0070E266E265004EC0B
:1009E40008F0266E265026EC0BF0020E576E040E0D
:1009F400566EBA0EE82EFED7562EFCD7572EFAD7CF
:100A040000D00B0E576E260E566E5E0EE82EFED7E5
:100A1400562EFCD7572EFAD700EF00F0600E366E34
:100A2400000E376E44C038F045C039F09CEC0CF031
:100A340046C03AF047C03BF02C0E3C6E000E3D6EB3
:100A44006FEC0AF0600E406E000E416E2C0E426E8A
:100A5400000E436EC9EC0EF0600E406E000E416E47
:100A6400100E426E080E436EC9EC0EF048C03AF008
:100A740049C03BF02C0E3C6E000E3D6E6FEC0AF04C
:100A8400600E406E000E416E2C0E426E000E436EE0
:100A9400C9EC0EF0600E406E000E416E100E426EF8
:100AA400080E436EC9EC0EF04AC03AF04BC03BF05E
:100AB4002C0E3C6E000E3D6E6FEC0AF0600E406E24
:100AC400000E416E2C0E426E000E436EC9EC0EF009
:100AD400600E406E000E416E100E426E080E436EA4
:100AE400C9EC0EF04CC03AF04DC03BF02C0E3C6EFD
:100AF400000E3D6E6FEC0AF0600E406E000E416E0B
:100B04002C0E426E000E436EC9EC0EF0600E406E69
:100B1400000E416E100E426E080E436EC9EC0EF0CC
:100B24004EC03AF04FC03BF02C0E3C6E000E3D6EB2
:100B34006FEC0AF0600E406E000E416E2C0E426E99
:100B4400000E436EC9EC0EF0600E406E000E416E56
:100B5400100E426E080E436EC9EC0EF050C03AF00F
:100B640051C03BF02C0E3C6E000E3D6E6FEC0AF053
:100B7400600E406E000E416E2C0E426E000E436EEF
:100B8400C9EC0EF0600E406E000E416E100E426E07
:100B9400080E436EC9EC0EF052C03AF053C03BF05D
:100BA4002C0E3C6E000E3D6E6FEC0AF0600E406E33
:100BB400000E416E2C0E426E000E436EC9EC0EF018
:100BC400600E406E000E416E100E426E080E436EB3
:100BD400C9EC0EF054C03AF055C03BF02C0E3C6EFC
:100BE400000E3D6E6FEC0AF0600E406E000E416E1A
:100BF4002C0E426E000E436EC9EC0EF0120094905F
:100C04001A0E326EF80EE82EFED7322EFCD700D024
:100C14009492020E336E040E326EBA0EE82EFED794
:100C2400322EFCD7332EFAD700D09398020E336EAF
:100C3400040E326EBA0EE82EFED7322EFCD7332EB7
:100C4400FAD700D0939E020E336E040E326EBA0EA3
:100C5400E82EFED7322EFCD7332EFAD700D095904B
:100C64001A0E326EF80EE82EFED7322EFCD700D0C4
:100C740095921A0E326EF80EE82EFED7322EFCD75D
:100C840000D095941A0E326EF80EE82EFED7322E4E
:100C9400FCD700D095961A0E326EF80EE82EFED7C9
:100CA400322EFCD700D0959C1A0E326EF80EE82E28
:100CB400FED7322EFCD700D0959E1A0E326EF80E57
:100CC400E82EFED7322EFCD700D095981A0E326E3D
:100CD400F80EE82EFED7322EFCD700D0959A1A0EC5
:100CE400326EF80EE82EFED7322EFCD700D0020E5C
:100CF400336E040E326EBA0EE82EFED7322EFCD7B7
:100D0400332EFAD700D08C801A0E326EF80EE82EED
:100D1400FED7322EFCD700D08C821A0E326EF80E1B
:100D2400E82EFED7322EFCD700D08C841A0E326EF9
:100D3400F80EE82EFED7322EFCD700D08C861A0E81
:100D4400326EF80EE82EFED7322EFCD700D08C8CF3
:100D54001A0E326EF80EE82EFED7322EFCD700D0D3
:100D64008C8E1A0E326EF80EE82EFED7322EFCD779
:100D740000D08C881A0E326EF80EE82EFED7322E72
:100D8400FCD700D08C8A8A8C1200000E426E000EB2
:100D9400416E000E406E000E3F6ED3EF06F0394AEE
:100DA4003A2A39C0D9FF3AC0DAFF200EDE18D8B487
:100DB400DEEF06F0E0EF06F0D1EF06F0F70E3B6E43
:100DC400FF0E3C6E39C0D9FF3AC0DAFFDF503D6EEA
:100DD4003E6A3B503D263C503E223E5009E1050E02
:100DE4003D5CD8A0F8EF06F0FAEF06F0D1EF06F07C
:100DF40004EF07F0000E406E010E3F6E394A3A2AA6
:100E040039EF07F039C0D9FF3AC0DAFFDF503B6E43
:100E14003C6A3C50000AD8B412EF07F039EF07F0EF
:100E24003B502B0AD8B400EF07F0060AD8B4FCEF05
:100E340006F039EF07F041C032F042C033F0000E43
:100E4400356E0A0E346EDCEC0EF039C0D9FF3AC0B0
:100E5400DAFFDF503B6E3B50325E000E335A300EE9
:100E64003224416E000E3320426E00EF07F0D00EA4
:100E74003B6EFF0E3C6E39C0D9FF3AC0DAFFDF503B
:100E84003D6E3E6A3B503D263C503E223E5009E1B9
:100E94000A0E3D5CD8A051EF07F053EF07F01DEFA9
:100EA40007F03F504010D8A45AEF07F05CEF07F06A
:100EB4006AEF07F041C03BF042C03CF03B1E3C1ED1
:100EC4003B4A3C2A3BC039F03CC03AF06EEF07F095
:100ED40041C039F042C03AF01200000E416E0A0ED1
:100EE400406E000E426E7EEC0BF040C023F041C019
:100EF40024F0000E416E0A0E406E010E426E7EEC2E
:100F04000BF040C021F041C022F0000E416E0A0EE9
:100F1400406E040E426E7EEC0BF040C01FF041C0E8
:100F240020F0000E416E0A0E406E050E426E7EECFD
:100F34000BF040C01DF041C01EF0000E416E0A0EC1
:100F4400406E060E426E7EEC0BF040C01BF041C0BA
:100F54001CF0000E416E0A0E406E070E426E7EECCF
:100F64000BF040C019F041C01AF0000E416E0A0E99
:100F7400406E080E426E7EEC0BF040C017F041C08C
:100F840018F0000E416E0A0E406E090E426E7EECA1
:100F94000BF040C015F041C016F00B0E446E080E65
:100FA400456E23C046F024C047F021C048F022C05B
:100FB40049F01FC04AF020C04BF01DC04CF01EC0C9
:100FC4004DF01BC04EF01CC04FF019C050F01AC0B9
:100FD40051F017C052F018C053F015C054F016C0A9
:100FE40055F010EC05F0600E366E000E376E24ECF2
:100FF4000CF0030E366E080E376E24EC0CF06FEF17
:1010040007F01200346E47EF08F0000E346E94EFD0
:1010140008F0100E346E94EF08F0200E346E94EF46
:1010240008F0300E346E94EF08F0400E346E94EFF6
:1010340008F0500E346E94EF08F0600E346E94EFA6
:1010440008F0700E346E94EF08F0800E346E94EF56
:1010540008F0900E346E94EF08F0A00E346E94EF06
:1010640008F0B00E346E94EF08F0C00E346E94EFB6
:1010740008F0D00E346E94EF08F0E00E346E94EF66
:1010840008F0F00E346E94EF08F03450326E336A88
:101094003350000AD8B451EF08F094EF08F03250FE
:1010A400000AD8B407EF08F0010AD8B40BEF08F02F
:1010B400030AD8B40FEF08F0010AD8B413EF08F00C
:1010C400070AD8B417EF08F0010AD8B41BEF08F0E8
:1010D400030AD8B41FEF08F0010AD8B423EF08F0CC
:1010E4000F0AD8B427EF08F0310AD8B42BEF08F070
:1010F400780AD8B42FEF08F0030AD8B433EF08F015
:10110400010AD8B437EF08F0070AD8B43BEF08F067
:10111400010AD8B43FEF08F0030AD8B443EF08F04B
:1011240094EF08F034501200000E3B6E39BE9FEF6E
:1011340008F09DEF08F0A9EF08F0391E381E371E9D
:10114400366C000E372238223922010E3B6E35BE32
:10115400B0EF08F0AEEF08F0BAEF08F0351E341E19
:10116400331E326C000E332234223522010E3B1A18
:10117400000E3C6E000E3D6E000E3E6E000E3F6E85
:101184003650371038103910D8B4CBEF08F0CDEF03
:1011940008F003EF09F0010E3A6ED7EF08F0D8908B
:1011A40036363736383639363A2A39AEDCEF08F077
:1011B400DEEF08F0D1EF08F0D8903C363D363E36ED
:1011C4003F363650325C37503358385034583950E3
:1011D4003558D8A0F0EF08F0F2EF08F0FBEF08F074
:1011E4003650325E3750335A3850345A3950355AA3
:1011F4003C80D89039323832373236323A2EDEEFEC
:1012040008F03B50D8B409EF09F00BEF09F013EFE5
:1012140009F03F1E3E1E3D1E3C6C000E3D223E2248
:101224003F223CC032F03DC033F03EC034F03FC0FA
:1012340035F01200356E65EF09F032B002D08C90B3
:1012440001D08C800D0E336EFC0EE82EFED7332EAB
:10125400FCD796EF09F032B002D08C9201D08C8288
:1012640024EF09F032B002D08C9401D08C8424EFA6
:1012740009F032B002D08C9601D08C8624EF09F0AC
:1012840032B002D08C9C01D08C8C24EF09F032B0A7
:1012940002D08C9E01D08C8E24EF09F032B002D0A3
:1012A4008C9801D08C8824EF09F032B002D08C9A4B
:1012B40001D08C8A24EF09F032B002D08A9C01D08C
:1012C4008A8C24EF09F03550336E346A3450000AA6
:1012D400D8B46FEF09F096EF09F03350000AD8B490
:1012E4001FEF09F0010AD8B42DEF09F0030AD8B4AE
:1012F40034EF09F0010AD8B43BEF09F0070AD8B477
:1013040042EF09F0010AD8B449EF09F0030AD8B44E
:1013140050EF09F0010AD8B457EF09F00F0AD8B416
:101324005EEF09F096EF09F01200010E2A6E480EE6
:101334005D6E000E286E000E276E000E0C6E000E01
:101344000B6E04EF0AF0080E2860ABEF09F0ADEF66
:1013540009F002EF0AF001EC0FF05D6E790E5D18F2
:10136400D8A4B7EF09F0B9EF09F0D9EF09F0000EEE
:10137400536E000E526E2850EFEC0EF0282A524A9B
:10138400532A53BECFEF09F0535009E1080E525CC3
:10139400D8A0CFEF09F0D1EF09F0BDEF09F0050EA9
:1013A400366E080E376E24EC0CF004EF0AF06E0E65
:1013B4005D18D8A4E0EF09F0E2EF09F004EF0AF0B9
:1013C400285096EC0DF028C026F0265004EC08F0C6
:1013D400266E300E346E000E356E26500BEC0EF079
:1013E400030E516E980EE82EFED7512EFCD70E0E2A
:1013F400366E080E376E24EC0CF0282A04EF0AF03F
:10140400000E2A6E2A50D8A40AEF0AF00CEF0AF054
:10141400A5EF09F01200000E376E35BE16EF0AF084
:1014240014EF0AF01CEF0AF0346C351ED8B0352ADC
:10143400010E376E33BE23EF0AF021EF0AF029EFD5
:101444000AF0326C331ED8B0332A010E371A000E5C
:10145400396E000E386E34503510D8B434EF0AF0BB
:1014640036EF0AF05EEF0AF0010E366E3EEF0AF038
:10147400D89034363536362A35AE43EF0AF045EF88
:101484000AF03AEF0AF0D890383639363450325CE4
:1014940035503358D8A051EF0AF053EF0AF058EF03
:1014A4000AF03450325E3550335A3880D890353291
:1014B4003432362E45EF0AF03750D8B464EF0AF0D0
:1014C40066EF0AF06AEF0AF0386C391ED8B0392A90
:1014D40038C032F039C033F012003CC040F03DC097
:1014E40041F03AC03EF03BC03FF03FBE7EEF0AF011
:1014F4007CEF0AF082EF0AF03A6C3B1ED8B03B2A2C
:101504003AC032F03BC033F0000E356E0A0E346E32
:10151400CEEC0AF03250300F40C0D9FF41C0DAFFA0
:10152400DF6E404A412A3AC032F03BC033F0000E2D
:10153400356E0A0E346E0DEC0AF032C03AF033C048
:101544003BF03A503B10D8A4AAEF0AF0ACEF0AF0F3
:1015540082EF0AF03FBEB3EF0AF0B1EF0AF0BBEF3F
:101564000AF040C0D9FF41C0DAFF2D0EDF6E404AB9
:10157400412A40C0D9FF41C0DAFF000EDF6E3CC0F3
:1015840032F03DC033F0FF0E4024346EFF0E412094
:10159400356ECAEC0CF01200000E376E33BED7EF76
:1015A4000AF0D5EF0AF0DDEF0AF0326C331ED8B042
:1015B400332A010E376E35BEE4EF0AF0E2EF0AF08B
:1015C400E8EF0AF0346C351ED8B0352A34503510A3
:1015D400D8B4EFEF0AF0F1EF0AF015EF0BF0010EBB
:1015E400366EF9EF0AF0D89034363536362A35AEF1
:1015F400FEEF0AF000EF0BF0F5EF0AF03450325C26
:1016040035503358D8A009EF0BF00BEF0BF00FEF68
:101614000BF03450325E3550335AD8903532343270
:10162400362E00EF0BF03750D8B41BEF0BF01DEF44
:101634000BF021EF0BF0326C331ED8B0332A32C0DA
:1016440032F033C033F01200456E000E4D6E000EC2
:101654004C6E45504C24486E460E4C24D96E000EF8
:101664004D20DA6E485016EC0FF0DF6E4C4A4D2ACE
:101674004DBE46EF0BF04D5009E1020E4C5CD8A074
:1016840046EF0BF048EF0BF02BEF0BF0000E496E1A
:10169400000E4F6E000E4E6E49504E24496E460E9B
:1016A4004E24D96E000E4F20DA6E4A0E4E24E16E9F
:1016B400000E4F20E26EDFCFE7FF4E4A4F2A4FBEA7
:1016C4006DEF0BF04F5009E1020E4E5CD8A06DEFA8
:1016D4000BF06FEF0BF04EEF0BF04A0E396E000E6D
:1016E4003A6EC7EC06F039C005F03AC006F005C002
:1016F40043F006C044F01200000E016E000E026EAC
:10170400000E036E000E046E000E4A6E000E496E4B
:10171400AAEF0BF0425073EC0EF032C047F033C026
:1017240048F047C043F048C044F0000E44BEFF0EEA
:10173400456E466E01504324016E02504420026EF1
:1017440003504520036E04504620046E494A4A2A39
:101754004050495C4A50800A436E4150800A4358C5
:10176400D8A0B7EF0BF0B9EF0BF08CEF0BF001C082
:1017740032F002C033F003C034F004C035F040C08E
:1017840036F041C037F0000E37BEFF0E386E396EAA
:1017940096EC08F032C040F033C041F01200446EC1
:1017A400BDEC0DF0000E456E000E466E000E476E49
:1017B400000E486E000E2B6E000E4A6E000E496E2F
:1017C40011EF0CF0010E4526000E46224722482256
:1017D40048BEFAEF0BF048500DE1A10E455C250E12
:1017E4004658260E4758D8A0FAEF0BF0FCEF0BF042
:1017F40000EF0CF0010E2B6E23EF0CF09EAA05EF08
:101804000CF007EF0CF0E4EF0BF049503F24D96ED5
:101814004A504020DA6EAECFDFFF494A4A2A44508C
:10182400416E426A4150495C4A50800A436E4250BC
:10183400800A4358D8A021EF0CF023EF0CF000EFFE
:101844000CF0120036C032F037C033F0E4EC0DF087
:1018540032C03AF033C03BF0000E3D6E000E3C6ED9
:1018640054EF0CF09EA839EF0CF03BEF0CF034EF82
:101874000CF03C503624386E3D503720396E38C059
:10188400F6FF39C0F7FFF86A070EF76403D00800C3
:10189400F55005D0F6CFE9FFF7CFEAFFEF50AD6E74
:1018A4003C4A3D2A3A503C5C3D50800A386E3B50DD
:1018B400800A3858D8A061EF0CF063EF0CF034EFD5
:1018C4000CF01200949C948E40C036F041C037F066
:1018D40042C038F043C039F0000E326E120E336E3F
:1018E4007A0E346E000E356E96EC08F032C044F079
:1018F40033C045F034C046F035C047F044C032F040
:1019040045C033F046C034F047C035F0400E366E63
:10191400000E376E000E386E000E396E96EC08F02D
:101924003204AF6EAC94AC98AB8EAC9CAC8AAB9CDE
:10193400AB88120038C03CF039C03DF036C03EF0F0
:1019440037C03FF03C503A6E3D503B6E3C4A3D2A16
:101954003AC0F6FF3BC0F7FFF86A3EC0D9FF3FC06C
:10196400DAFF3E4A3F2A070EF76403D00800F55019
:1019740005D0F6CFE9FFF7CFEAFFEF50DF6EDF5077
:10198400D8A4C7EF0CF0C9EF0CF0A4EF0CF01200D0
:10199400E7EF0CF034C0D9FF35C0DAFFDF50366E04
:1019A40032C0D9FF33C0DAFF34C0E1FF35C0E2FFF3
:1019B400DFCFE7FF3406D8A0350632C0D9FF33C0E5
:1019C400DAFF36C0DFFF324A332A3450325C3550F6
:1019D4003358D8A0F0EF0CF0F2EF0CF0CCEF0CF091
:1019E4001200386E38B002D08A9E01D08A8E8A885E
:1019F400000E326E080E1CEC09F0000E396E0DEF6D
:101A04000DF08A980D0E376EFC0EE82EFED7372E99
:101A1400FCD78A88392A3650395CD8A014EF0DF0E7
:101A240016EF0DF003EF0DF0010E326E080E1CECF4
:101A340009F012003A6E36B002D08B9201D08B823C
:101A44008B80000E326E3A501CEC09F0000E396E99
:101A540036EF0DF08B900D0E386EFC0EE82EFED78F
:101A6400382EFCD78B80392A3750395CD8A03DEF0B
:101A74000DF03FEF0DF02CEF0DF0010E326E3A50E9
:101A84001CEC09F01200010E386E200E32183310CF
:101A9400D8B44FEF0DF051EF0DF06AEF0DF0F70EE3
:101AA400346EFF0E356E32C036F033C037F034502A
:101AB400362635503722375009E1050E365CD8A05A
:101AC40066EF0DF068EF0DF06AEF0DF0000E386E62
:101AD40038C032F0336A1200386EC1503818F00B37
:101AE4003818C16E32C037F0373AC1503718CF0BAF
:101AF4003718C16EC0503318F80B3318C06E34C099
:101B040037F0374637463746C0503718C70B3718B3
:101B1400C06E35B002D0C09E01D0C08E36B002D0A7
:101B2400C29001D0C28012004B6E000E0C6E000EEB
:101B34000B6EAEEF0DF0300E3F6E000E406E020ED7
:101B4400D1EC0BF0300E396E000E3A6EC7EC06F095
:101B540039C00BF03AC00CF00B500C10D8B4B5EFF0
:101B64000DF0B7EF0DF09DEF0DF00BC03EF04B50B4
:101B74000CEC0FF01200ABA2C2EF0DF0C4EF0DF0AD
:101B8400D9EF0DF0AECF3EF0AECF3EF0AECF3EF08B
:101B9400AB98AB88ABB2D1EF0DF0D3EF0DF0C4EF3F
:101BA4000DF0010E366E080E376E24EC0CF0ABA46B
:101BB400DEEF0DF0E0EF0DF0E3EF0DF0AE50AC9A78
:101BC400AC8A120032C034F033C035F0ECEF0DF0C3
:101BD400324A332A32C0F6FF33C0F7FFF86A070EE1
:101BE400F76403D00800F55005D0F6CFE9FFF7CF2E
:101BF400EAFFEF500009D8A402EF0EF004EF0EF054
:101C0400EAEF0DF03450325C326E35503358336E97
:101C14001200366E000E396E000E386E36503824BF
:101C2400376E38503424D96E39503520DA6EDF508F
:101C3400326E3750B0EC0EF0384A392A39BE2CEFE8
:101C44000EF0395009E1020E385CD8A02CEF0EF0EA
:101C54002EEF0EF010EF0EF01200720ED36E800E07
:101C6400406E250E416E000E426E000E436E64EC13
:101C74000CF0000E8A6E000E8D6E000E326E040E95
:101C8400336E040E346E010E356E000E366E050E84
:101C94006EEC0DF0939C9398939E52EC0FF012000F
:101CA400AA0EF66E1E0EF76E000EF86E00EE59F0D8
:101CB40010EE05F00900F5CFEEFFE550E150FAE132
:101CC40000EE60F0210EEE6AE806FDE100EE01F0A0
:101CD400310EEE6AE806FDE1000EF86E00010AEF2F
:101CE40004F0356E35C034F034463446C2503418EE
:101CF400C30B3418C26EC280C282C2B284EF0EF02B
:101D040086EF0EF07FEF0EF0C290C4CF36F0376A44
:101D14003650376E366AC350361236C032F037C08A
:101D240033F01200D00E346EFF0E356E32C036F032
:101D340033C037F0345036263550372237500AE155
:101D44000A0E365CD8A0A9EF0EF0ACEF0EF0010E2F
:101D5400ADEF0EF0000E326E336A1200336E33C0F4
:101D6400A9FF32C0A8FFA69EA69CA684F29E550E8B
:101D7400A76EAA0EA76EA682F28EA1A8C4EF0EF0DB
:101D8400C6EF0EF0BFEF0EF0A198A694120040C06B
:101D940032F041C033F0E4EC0DF032504024366EA2
:101DA40033504120376E42C038F043C039F09CECC8
:101DB4000CF0120032503402F3CF36F0F4CF37F087
:101DC40032503502F350372633503402F35037265D
:101DD40036C032F037C033F01200506E505004EC6D
:101DE40008F0266E265026EC0BF043C00BF044C0DE
:101DF4000CF00BC03EF050500CEC0FF01200BDEC98
:101E04000DF09EAA08EF0FF00AEF0FF003EF0FF0AA
:101E1400AE5012003F6E3F5047EC0FF03EC03BF017
:101E24003F5029EC0FF01200326E32C0A9FFA69E7B
:101E3400A69CA680A8CF25F0255012003C6E000E6B
:101E4400366E3BC037F03C501CEC0DF012003C6E7B
:101E5400010E366E3BC037F03C501CEC0DF0120006
:101E64003B6E4EEC0FF03B5040EC0FF012003A6E1C
:101E74003AC036F0000EF3EC0CF012003A6E3AC0A1
:101E840036F0010EF3EC0CF012003D6E630E3B6E67
:101E94003D5020EC0FF01200630E39EC0FF01200ED
:0B1EA40001EC06F012000203DA024815
:020000040020DA
:08000000FFFFFFFFFFFFFFFF00
:020000040030CA
:0E0000000009181FFF8385FF0FC00FE00F409F
:00000001FF
